:0C0000000C9444000C9400000C940000D0
:10000C000C9400000C9400000C9400000C94000064
:10001C000C9400000C9400000C9400000C94000054
:10002C000C9400000C9400000C9400000C945F00E5
:10003C000C9400000C9400000C9400000C94000034
:10004C000C9400000C9400001027E80364000A00D4
:10005C00010000100001100001004025322E326614
:10006C0023004125322E326623004425322E32667F
:10007C002300403025322E3266230000F894EE2700
:10008C00ECBBF1E0FBBFEBBFE5BF8DE0A2E0BB2713
:10009C00ED938A95E9F780E094E0A0E6ED93019763
:1000AC00E9F7EFE5EDBFE4E0EEBFC0E6D1E00C947C
:1000BC00F4000A921A92FA926A937A938A939A9318
:1000CC00AA93BA93EA93FA93EFB7EA9324971A9305
:1000DC000A9304B115B1F801662777270E942D0306
:1000EC00AAE0B7ED83E290E40E945B03DF01CB0151
:1000FC00E0E0F0E060E874E40E94A9030E9497023B
:10010C00E0E0F0E068EC72E40E945B030E9497026E
:10011C00E0E0F0E060E271E40E94EE0318F00E946F
:10012C00A00208F003C0E6E6F0E034C00E94A00292
:10013C0009F008F403C00E94AB0208F005C0E6E623
:10014C00F0E00E94B60233C00E94AB0209F008F442
:10015C0003C00E94C40208F005C0EEE6F0E00E9465
:10016C00B60225C00E94C40209F008F40BC0AA8193
:10017C00BB818C819D81E0E0F0E064EB72E40E9435
:10018C00EE0308F005C0E6E7F0E00E94B6020FC0EF
:10019C00EEE7F0E0FA93EA93EC81FD816E817F81CA
:1001AC000E942B0484E00E9459022696C398AAEF61
:1001BC00B0E00E94F402EFECE6B9198108812696B2
:1001CC00E991EFBFF991E991B991A991999189912F
:1001DC0079916991F990199009901895EFEFE1BB1D
:1001EC00E0E0E2BBEFEFE7BBE0ECE8B9E0E0E0BF5A
:1001FC00E0ECE7B9EFE8E6B9E0E0EBB9E8E0EAB942
:10020C00E6E8E0BDE0E0E0BDE3E3E9B97894EFECCB
:10021C00E6B9FFCFFFCFAA935D9BFECFE881ECB987
:10022C0021960895BA93AA93AA81F5DFA881B98182
:10023C00ED91FD913196FE93EE9323960895BA932A
:10024C00AA9326970E94300410E0AC85BD85E0E0AF
:10025C00F0E0ED93FC93EA89FB893196EA8BFB8BFA
:10026C003197E4912E2FE03009F415C1E12FE030E5
:10027C0039F4253211F411E002C00E94CF020AC1F8
:10028C00E130A9F4253219F40E94CF0202C112E028
:10029C0040E000E02D3211F401E0FCC02B3211F4EF
:1002AC004BE2F8C0203211F440E2F4C002C0E2305C
:1002BC0039F450E013E0203311F40068EBC003C0B4
:1002CC00E33009F0E7C0203310F02A3308F007C000
:1002DC00AAE05A9F502DE22FE0535E0FDBC0E22FB5
:1002EC00E33649F40E94D602E889F989A481AA93DD
:1002FC000E94DC02CEC0E33741F40E94D6020E9479
:10030C00E2020E947E021E2F0AC0E03761F40E94B6
:10031C00D6020E94E2020E948A021E2F086002602E
:10032C000F7730E034C0E43611F0E93611F4046094
:10033C0002C0E53731F4E4E5F0E0EE83FF8315E02D
:10034C000CC0E83511F4086003C0E83709F0A1C00F
:10035C00EEE5F0E0EE83FF8314E002FF14C00E9490
:10036C00D6020E94EC02AB85AA233AF4EA85FB85FF
:10037C000E941204EA87FB874DE2403011F01F5FA8
:10038C0001C00B7F04C00E94D6020E94EC0200FD4B
:10039C0011C0151778F407FF08C002FF04C00B7FCB
:1003AC00242F115001C020E301C020E20E94CF0293
:1003BC005150EFCF312F01FF17C03030A1F003FFA8
:1003CC0006C0EE81FF812591EE83FF8305C0AE81CF
:1003DC00BF812D91AE83BF830E94CF02503009F0B4
:1003EC0051503150EACF4BC020E3EE81FF810E9487
:1003FC002704E887F987EE81FF813296EE83FF832D
:10040C00E885F985AA85BB85AE17BF0750F02F5F2D
:10041C00A885B985EA85FB85EA1BFB0BEA87FB8778
:10042C00EFCF2A3328F003FF02C0295F01C0295DFA
:10043C0004FD1AC0213320F4A885B985119709F45D
:10044C0009C0531710F000FF01C013C020E207FFD2
:10045C000BC020E3006102FF07C00B7F4A930E9490
:10046C00DC02503009F051500E94CF02503009F09C
:10047C0051503150A885B985129708F0B5CF00FFBF
:10048C0008C0503031F05150E0E2EA930E94DC0297
:10049C00F8CF10E0E0CEAC85BD850E9423040E940D
:1004AC00370464960895FF92F82E26971A930A93B0
:1004BC00DE0114960E940E048D01E0E0EC83ED83C6
:1004CC00EE83EF83DE0118960E940E040E94230433
:1004DC00FA93EA931A930A93E8E1F1E0FA93EA9318
:1004EC00DE011896ACDE198108812896FF900895DC
:1004FC00BA93AA93A991B991EE27FF276D91662320
:10050C0011F03196FBCF0895BA93AA93AA27BB2773
:10051C00E991F9910590002011F01196FBCFFD01A6
:10052C000895EA83FB836C837D83AA81BB818C81D4
:10053C009D810895AA81BB818C819D81E0E0F0E0D2
:10054C0060E272E40E94EE030895AA81BB818C8163
:10055C009D81E0E0F0E06CE572E40E94EE0308950A
:10056C00FA93EA93EC81FD816E817F810E942B04CA
:10057C0084E00E9459022696C39A0895AA81BB81F1
:10058C008C819D81E0E0F0E060E772E40E94EE0374
:10059C0008952A93AD85BE85EF85F8890995089550
:1005AC00E889F9893497E88BF98B0895AD85BE8578
:1005BC00EF85F88909950895A889B98914960E9440
:1005CC002304EE83FF83AE81BF810895A889B98986
:1005DC0014960E942304EA87FB870895109639F03D
:1005EC0088EE93E00197F1F7A8951197C9F7089554
:1005FC00552342F4503811F4E0FF04C03196691FC2
:10060C00791F6BF050E8572711F45F933CC05F3FA4
:10061C0031F0660F000C57956795752F08955F9311
:10062C0000200AF03CC035C050E8192E1522880F66
:10063C00991F9527550F879550E8072E0522660FB1
:10064C00771F7527550F67950895689401C0E89436
:10065C00309760407040B1F0002426F0772312F4FC
:10066C000094DED0172E7EE1112032F07A95EE0F39
:10067C00FF1F661F111CF9CFEF2FF62F612D5F9313
:10068C00C1DF5F910895EE27FF27662777275F91DB
:10069C000895EFEFFFEF6FE77FEF5F910895EFEFB6
:1006AC00FFEF6FE77FE75F9108955F93BDDF7038D1
:1006BC0051F3903841F301240894791F23F41CF36F
:1006CC0000203AF3ECCF0F921F932F933F934F934D
:1006DC00112722279927689FA0018F9F302D410D4C
:1006EC00591F6B9F300D411D591F8E9F27D0BF9FE7
:1006FC0025D06A9F23D0BE9F1DD0AF9F1BD0AE9F2D
:10070C00110D291F391F491F591FE32FF42F652F76
:10071C00522F4F913F912F911F910F9066232AF0EA
:10072C00550FEE1FFF1F661F02C073954BF260DF63
:10073C005F910895100D211D391F02C0200D311D30
:10074C00491F591F08955F936FDF703821F41120F2
:10075C000AF49FCFA4CF903809F495CF01240894C4
:10076C00970B1BF4D4F30020F3CF792F1F932F9307
:10077C003F934F93112411272227332744275527C2
:10078C0090E2AE17BF078607410730F0AE1BBF0BD8
:10079C00860B410B089401C08894551F221F331FF0
:1007AC00111CAA1FBB1F881F441F9A9551F7F901F2
:1007BC00612D4F913F912F911F91662332F0550F70
:1007CC00EE1FFF1F661F7A9543F212DF5F910895AB
:1007DC0099239AF0772342F0971748F029F4AE1733
:1007EC00BF07860720F031F0989488940895989468
:1007FC00089408951894889408957723C2F797174E
:10080C0098F3A9F7EA17FB07680788F399F3ECCF7D
:10081C000024AF0DB01D0895F195E195F0400895B9
:10082C00F09560957095E195FF4F6F4F7F4F089550
:10083C006F2F660F660B762F0895ED91FC91119733
:10084C0008950590F491E02D08957A936A93FA93A4
:10085C00EA9308955A934A933A932A931A930A93D4
:10086C0008955D814C813B812A811981088108950D
:00000001FF
