:040000000C94530009
:100004000C9400000C9400000C9400000C9400006C
:100014000C9400000C9400000C9400000C9400005C
:100024000C9400000C9400000C9400000C9400004C
:100034000C947F000C9400000C9400000C940000BD
:100044000C9400000C9400000C9400000C9400002C
:100054001027E80364000A000100001000011000EA
:1000640001000000000005006D656872616E207477
:10007400616D6A6964690064616D613D0041542B7E
:1000840043303231000080C00100020066000400E9
:1000940004006800080060028100020070028A0007
:1000A4000000F894EE27ECBBF1E0F5BFE5BF8DE06E
:1000B400A2E0BB27ED938A95E9F780E098E0A0E6FB
:1000C400ED930197E9F7ECE8F0E0859195910097BD
:1000D40061F0A591B59105901590BF01F0010590CF
:1000E4000D920197E1F7FB01F0CFEFE5EDBFE8E0FA
:1000F400EEBFC0E6D2E00C94F4000A921A92FA928F
:100104006A937A938A939A93AA93BA93EA93FA9303
:10011400EFB7EA930E9438021BB10CB1EAE0E6158E
:1001240031F4E5E06E2EA8E5B2E00E942E02003420
:10013400F1F0013429F1043439F1033219F4E5E022
:100144006E2E15C00E3259F0A02F0E942F013E2FA3
:10015400313029F06A92A0E00E94910107C06A92AE
:10016400A0E00E949101A02F0E94B4016394E0E0FA
:10017400EA93A1E00E949101003411F4C298C3985B
:10018400013411F4C29AC398043411F4C29AC39A84
:10019400E0E0EA93A1E00E949101E12FEC7189F47F
:1001A400E52D5394F0E0E859FD4F0083E8E0E515B0
:1001B40009F455247394E8E0E71519F47724689456
:1001C40020F80E943D022496E991EFBFF991E9914C
:1001D400B991A9919991899179916991F99019901D
:1001E40009901895E0E0E1BBEFEFE2BBE0E0E4BB8F
:1001F400EFEFE5BBE7BBE0E0EBB9E8E9EAB9E6E835
:10020400E0BDE0E0E0BDE9E1E9B9A0E10E94F2016E
:10021400ACE6B0E00E94CE01E1E0EA93A0E00E94E7
:100224009101A8EEB3E00E942E020E94A101ABE767
:10023400B0E00E94CE01E0E0EA93A0E00E949101C8
:10024400A4EFB1E00E942E027894C798A0E6B2E031
:100254000E943F01C79AFFCFFFCFAA93E1E0F99133
:10026400F03310F0FA3308F0EE270895AA935D9B5B
:10027400FECFE881ECB90C942302BA93AA931A93A3
:10028400A981BA81ED91A983BA831E2FE03019F0B8
:10029400A12FECDFF5CFAAE0E9DF0C94DE01FFE04B
:1002A400FA95F1F70895AAB3AF70AABBD99AD89872
:1002B400F6DFDA9AF4DFA9B3DA98F1DFDA9AEFDF3E
:1002C400DA98A7FDF5CF0895A07FAB2BABBBDA9AE4
:1002D4000E945101DA980E9451010895AA93D99875
:1002E400AAB3A76FAABBBBB3BF70A881EDDFA88177
:1002F400A295EADFD99A0C942302DA9A0E9451015A
:10030400E9B3DA980E945101E07F08950E945101F7
:10031400F4DFAE2FF2DFD998E295EA2B0895AA9381
:100324000E945501E881F0E0E059FD4FE081A98188
:10033400AE0F0E94700199808880229608950E94D1
:100344005501A2E00E9470010E945501ACE00E9498
:1003540070010E945501A1E00E947001E0E08E2E20
:100364009E2E0895AA93EF93FF93A8816894AA30D0
:1003740019F0E8949B1430F08394E0E0EA93A82DFC
:10038400CEDF36F093948FDFD89AA8810E94700153
:10039400FF91EF910C942302BA93AA931A93E981E3
:1003A400FA813196E983FA833197E4911E2FE03084
:1003B40019F0A12FD7DFF3CF188123960895AA2728
:1003C400BB271197F1F70895AA93D998AAB3A76FF9
:1003D400AABBBBB3BF70A8810E946601D99A31C081
:1003E400AA93DA98D898B880E881E058E09372022A
:1003F400E881E054E09373020E9425020E942502E2
:100404000E942502DCDFA0E2DFDFD9DFA8E20E9440
:100414002A02A4E00E942A02A5E80E942A02AAB3A2
:10042400AF70AABBD99A0E948801E53011F0E0E0D0
:1004340008C00E945501A6E00E9470010E94A1011B
:10044400E1E0219608950E94E101A0E30C94E60105
:100454000E9470010C94E101109639F088EE93E04B
:100464000197F1F7A8951197C9F708953A932A933C
:100474001A930A9308953B812A811981088108956A
:00000001FF
