:100000000C944F000C9400000C9400000C94000021
:100010000C9400000C9400000C9400000C94000060
:100020000C9400000C9400000C9400000C94000050
:100030000C9400000C9400000C947C000C940000C4
:100040000C9400000C9400000C9400000C94000030
:100050000C9400004025322E326623004125322EBA
:10006000326623004425322E32662300403025328A
:100070002E3266230041542B4330323100002D4E86
:10008000414E000001002D4E414E00494E460000F9
:100090000800600175000100680184000000F89408
:1000A000EE27ECBBF1E0FBBFEBBFE5BF8DE0A2E0CC
:1000B000BB27ED938A95E9F780E094E0A0E6ED9305
:1000C0000197E9F7E0E9F0E085919591009761F0FB
:1000D000A591B59105901590BF01F00105900D9285
:1000E0000197E1F7FB01F0CFEFE5EDBFE4E0EEBFF4
:1000F000C0E6D1E00C940B010A921A92FA926A932C
:100100007A938A939A93AA93BA93EA93FA93EFB75E
:10011000EA9324971A930A9305B11127F8016627E9
:1001200077270E940E07AAE0B7ED83E290E40E94D1
:100130009807DF01CB01E0E0F0E06FE773E40E9495
:10014000E6070E947805E0E0F0E068EC72E40E94C7
:1001500098070E9478050E9481050E942B0818F0DC
:100160000E94860508F003C0E4E5F0E032C00E947A
:10017000860509F008F403C00E94910508F005C047
:10018000E4E5F0E00E949C052FC00E94910509F073
:1001900008F403C00E94AA0508F005C0ECE5F0E0F1
:1001A0000E949C0521C00E94AA0509F008F409C01C
:1001B0000E94B505E0E0F0E064EB72E40E942B08D9
:1001C00008F005C0E4E6F0E00E949C050DC0ECE6F6
:1001D000F0E0FA93EA930E94BA050E94CF0884E007
:1001E0000E9444042696C398AAEFB0E00E949806A5
:1001F000EFECE6B9198108812696E991EFBFF991F4
:10020000E991B991A9919991899179916991F9901F
:10021000199009901895EFEFE1BBE0E0E2BBEFEF3A
:10022000E7BBE0EEE7B9EBE8E6B9E0E8E8B9E0E023
:10023000E0BFEBB9E8E0EAB9EEE8E0BDE0E0E0BD40
:10024000E9E1E9B97894C798A0E6B1E00E943401E9
:10025000C79AEFECE6B9FFCFFFCFAA935D9BFECF25
:10026000E881ECB921960895BA93AA931A93A981CB
:10027000BA81ED91A983BA831E2FE03019F0A12F26
:10028000ECDFF5CFAAE0E9DF18810BC0BA93AA939F
:10029000AA81E3DFA881B981ED91FD913196FE93AA
:1002A000EE93239608950E94BF05E0E8EA83EFE30A
:1002B000EB830E94EC08EE85FF85EF3FAFEFFA0776
:1002C00049F4E885F985FA93EA93AEE7B0E00E9435
:1002D0006904B9C0EF3FAFE7FA0749F4E885F9854B
:1002E000FA93EA93AFE7B0E00E946904ACC0AB8533
:1002F000A73010F0E6E0EB871B85E12F1150E030CE
:1003000019F00E94C605F9CFEC85FD856E857F85C5
:100310000E94E60821F430E00E94C6052DC03B850E
:100320000E94D20509F008F40BC00E94C6050E9485
:10033000D20528F00E94DA050E94DF05F8CF0DC033
:100340000E94D20540F40E94DA050E94EB050E944B
:10035000EF053150F5CF0E94C605EC85FD856E8511
:100360007F850E94F4050E94EF050E94D20520F0CF
:100370000E94DA050E94DF0510E0EB85E117B8F175
:10038000AC81BD818E819F810E94FB050E94F40596
:10039000DF01CB010E94C004EC83FD836E837F8369
:1003A0000E94BA050E94DA050E94E6070E94D5065F
:1003B0000E2F0E9402060E940906FF276627772754
:1003C0000E940E07AC81BD818E819F810E9498079B
:1003D0000E94DA050E940E060E94EF05E12F1F5FC2
:1003E000E03059F60E940206EEE2EC93C6CF0E947E
:1003F00013063197AA85A08330302CF43195A88557
:10040000B985EDE203C0A885B985EBE2EC930E94C3
:1004100013060E9413063197BF01A32FEAE00E9442
:100420007008E05DDB01EC930E9413063197BF0179
:10043000A32FEAE00E949A08E05DDB01EC93A88517
:10044000B985E0E0EC930E94F30860960895BA93B2
:10045000AA93EF9761970E94EA0810E0FE01E85A1C
:10046000FF4F0190F081E02DE887F987FE01EA5AFD
:10047000FF4F0190F081E02DEE83FF83AE81BF81BD
:10048000E0E0F0E0ED93FC93DE01A45ABF4FED9164
:10049000FD913196FE93EE933197E4912E2FE0304B
:1004A00009F4E9C1E12FE03039F4253211F411E00B
:1004B00002C00E941906DEC1E130C1F4253219F4F0
:1004C0000E941906D6C112E0E0E0ED8B00E02D326B
:1004D00011F401E0CFC12B3219F4EBE2ED8BCAC16C
:1004E000203219F4E0E2ED8BC5C102C0E23039F4EC
:1004F00050E013E0203311F40068BCC102C0E330C7
:1005000091F4203310F02A3308F007C0AAE05A9F74
:10051000502DE22FE0535E0FADC140E02E3211F4BA
:1005200014E0A8C10FC0E43099F4203310F02A334E
:1005300008F008C00062AAE04A9F402DE22FE05375
:100540004E0F98C12C3619F4026015E093C103C018
:10055000E53009F08FC1E22FE33659F40E942006FE
:100560000E9427060E942006A481AA930E942E06BC
:1005700080C1E53411F0E53609F403C0E63609F030
:1005800048C0FE017696EE87FF870E9434060E94DF
:10059000BA080E943B060E944006AD85AA2332F0AD
:1005A000AD89AB3259F0A03281F017C00E944206EB
:1005B0000E94A2060E943B06EDE2ED8B07FF05C0FC
:1005C000ED89EA930E942E0608C0EE85FF853196DC
:1005D000EE87FF873197AD89A08305FF46E0263679
:1005E00051F40E9442060E94CF084A93AB89BC890D
:1005F0000E94D70409C00E9442060E94CF084A9375
:100600002A93AC89BD894FDEFE0176960E9447068B
:100610001EC0E33739F40E9440060E944F060E9434
:1006200047060EC0E037C1F40E9440060E944F0604
:10063000EE87FF87AE85BF850E9482041E2F08606B
:100640000F77403011F0411708F001C0142F40E03F
:10065000E0E0EC8B30E06DC0E43611F0E93611F4E7
:10066000046002C0E537A1F4EAE0EC8B01FF08C0AA
:10067000E0E0FAEC6AE97BE30E9454061AE022C04B
:10068000E0E1F7E260E070E00E94540615E01AC075
:10069000E83511F4086003C0E83709F0EAC0E0E18A
:1006A000EC8B01FF08C0E0E0F0E060E070E10E9448
:1006B000540618E007C0E0E0F0E160E070E00E945E
:1006C000540614E0403011F00F7701C041E001FF03
:1006D00008C00E9440060E94340614960E94BA0880
:1006E0000FC002FF07C00E9440060E944F060E94F2
:1006F0005D0806C00E9440060E944F0666277727C5
:10070000EA87FB876C877D8702FF12C0AD85AA232D
:1007100042F40E9442060E944F080E943B06EDE20E
:10072000ED8BED89E03019F01F5F4F5F01C00B7F4B
:10073000342F00FD14C0151710F4351708F00FC042
:1007400007FF08C002FF04C00B7F2D89115001C0B4
:1007500020E301C020E20E9419065150ECCF14178B
:1007600090F4006102FF06C00E94590609F0515042
:1007700011504150E0E3EA930E942E06503009F0F8
:1007800051504150ECCF312FEC89E030B9F430308A
:10079000A1F003FF06C0EE85FF852591EE87FF8758
:1007A00005C0AE85BF852D91AE87BF870E94190613
:1007B000503009F051503150EACF51C00E946B06C1
:1007C0000E9475082E2F2A3030F003FF02C0295CEA
:1007D00001C0295A01C0205D04FD21C0213360F40D
:1007E000A889B9898A899B89A130E0E0BE07E0E049
:1007F0008E07E0E09E0709F40BC0431740F453173F
:1008000010F000FF01C010C020E207FF08C020E385
:10081000006102FF04C00E94590609F051500E9475
:100820001906503009F0515031500E946B060E9459
:10083000A6080E943B06EC89A889B9898A899B8908
:10084000FF27662777270E9475080E945406E889CB
:10085000F9896A897B890E94E60809F0AFCF00FF19
:1008600008C0503031F05150E0E2EA930E942E0669
:10087000F8CF10E009CEAE81BF810E94B6080E9479
:10088000F108EF966F960895FF92F82E26971A9327
:100890000A93DE0114960E944B088D01E0E0EC8380
:1008A000ED83EE83EF83DE0118960E944B080E94D1
:1008B000B608FA93EA931A930A93E6E4F1E0FA93FE
:1008C000EA93DE011896C3DD198108812896FF900E
:1008D0000895BA93AA93E991F991A991B991CD019B
:1008E00005900D920020E1F7FC010895BA93AA93B8
:1008F000A991B991EE27FF276D91662311F03196EA
:10090000FBCF0895BA93AA93AA27BB27E991F9913F
:100910000590002011F01196FBCFFD0108950E9473
:10092000D4087B816A81F981E88177FB770F67FDC5
:100930007160972F9E5781F078F0983190F4AA2734
:10094000BB27882708948795B795A7959A95D1F7DF
:10095000EA23FB23682305C0E8947727EE27FF27C7
:1009600066276F77769508F4606877F9A991B99151
:1009700089919991EA17FB076807790797FB089512
:100980000E94D4080E94C5080E948F040E94CA08D1
:1009900019F40E94C00809C0E6F70E94C008A0E050
:1009A000B0E080E89FE30E94410724960895E7D0D5
:1009B000E0E0EA83EFE3EB831A930A93EB85FC858F
:1009C000EF3FAFEFFA0731F48FD1A6E8B0E00E9415
:1009D00069048AC0EF3FAFE7FA0731F485D1A7E891
:1009E000B0E00E94690480C0AC85AA2352F4E98576
:1009F000FA856B857C850E94A2067BD17FD1EDE2D2
:100A0000EC93A885A73010F0E6E0E8871885E12F81
:100A10001150E03021F0A9D0EED077D1F8CF7AD1C3
:100A20000E94480766D110E0E0E0F0E060E87FE374
:100A30006CD170D10E942B0868F097D0CCD065D1D2
:100A40001F5F173230F050D1ABE8B0E00E9469046C
:100A50004BC0EFCF103021F451D1E0E3EC9320C034
:100A6000E12F1150E030E1F080D0C5D0BDD0DF01E2
:100A7000CB010E94C00449D14DD10E94E6070E94DB
:100A8000D5060E2F3BD1C5D0F0E06FD00E945D0897
:100A90000E940E070E94980746D1C0D02AD1E0CF0D
:100AA000E885E030E9F02AD1EEE2EC93E885E15008
:100AB000E887EF5FA9F037D18ED01BD1E985FA85A1
:100AC0006B857C850E94D5060E2F18D1A2D0F0E050
:100AD0002AD10E945D080E940E07A0D00AD1E6CF5D
:100AE000AE81BF81E0E0EC93198108812D960895D5
:100AF000EA83FB836C837D83AA81BB818C819D818A
:100B00000895E0E0F0E060E271E40895AA81BB811D
:100B10008C819D81E0E0F0E060E272E40E942B08AD
:100B20000895AA81BB818C819D81E0E0F0E06CE5B5
:100B300072E40E942B080895FA93EA93EC81FD81F8
:100B40006E817F810E94CF0884E00E944404269633
:100B5000C39A0895AA81BB818C819D81E0E0F0E079
:100B600060E772E40E942B080895AA81BB818C8102
:100B70009D810895EC81FD816E817F810895BA93F6
:100B8000AA932497E0E0E883E9830895AC81BD81CE
:100B90008E819F81B6DF0E949807EC83FD836E8370
:100BA0007F830895E7DFAC85BD858E859F850E9494
:100BB0002B080895AC85BD858E859F850895EDEC45
:100BC000FCEC6CEC7DE30E949807EC87FD876E8758
:100BD0007F873F5F089595DF0E9498070895EC870F
:100BE000FD876E877F870895A0E0B0E080E09FE3F7
:100BF0000E9448070895EDECFCEC6CEC7DE30E944C
:100C000098070895A885B9851196A887B98711977F
:100C10000895E02FE05DEC93E02F08950E94D9083D
:100C20000E9441070895E885F9853196E887F9879C
:100C300008952A93AF81B885E985FA8509950895C5
:100C4000FE01E65AFF4F0190F081E02D08953497A0
:100C5000DE01A65ABF4FED93FC930895AF81B8858E
:100C6000E985FA8509950895DE01A65ABF4F0D90D2
:100C7000BC91A02D0895EA87FB876C877D87089536
:100C8000DFDFE5CFEA85FB856C857D850895EE87FE
:100C9000FF87AE85BF850E9476041E2F0895E4DF8E
:100CA00014960E94B6080895E88BF98B6A8B7B8BAB
:100CB00008950B7FED89EA93DE01A95ABF4F0D908D
:100CC000BC91A02DFE01E75AFF4F0190F081E02D6D
:100CD000099550300895E889F9896A897B89AA8540
:100CE000BB858C859D850895EE81FF81FA93EA93FB
:100CF0000895E987FA876B877C870895AE81BF8165
:100D00001196AE83BF8311970895EA83FB836C83AA
:100D10007D830895EA81FB816C817D81A985BA85F7
:100D20008B859C850895A985BA858B859C850895BA
:100D3000109639F088EE93E00197F1F7A895119796
:100D4000C9F7089530976040704009F070580895D1
:100D5000552342F4503811F4E0FF04C03196691F66
:100D6000791F6BF050E8572711F45F93CFC05F3FB6
:100D700031F0660F000C57956795752F08955F93B6
:100D800000200AF0CFC0C8C050E8192E1522880FE5
:100D9000991F9527550F879550E8072E0522660F56
:100DA000771F7527550F67950895689401C0E894DB
:100DB0005F93F2DF703818F07F3F08F4A7C056E168
:100DC000571BAAF4519558300EF4593030F0EFEF1C
:100DD000FFEF6FEF7FE777F91AC077275523B9F058
:100DE000EE0FFF1F661F771F5A95D1F710C07727A8
:100DF000583028F0EF2FF62F672F5850F9CF552392
:100E000031F076956795F795E7955A95D1F70020DB
:100E10000AF445D15F910895689401C0E894309731
:100E200060407040B1F0002426F0772312F4009463
:100E300036D1172E7EE1112032F07A95EE0FFF1F8A
:100E4000661F111CF9CFEF2FF62F612D5F938ADFFC
:100E50005F9108954F93AF01FD01DA01AB01BC0131
:100E6000CA01402D012C142E4F910895EA0FFB1F4B
:100E7000681F0895E095F0956095EF5FFF4F6F4F05
:100E800008955F9381DF903871F150E8152604C012
:100E90005F937ADF903839F1703821F1572F591B61
:100EA0002BF112F4D7DFFACF583118F0AA27BB275D
:100EB0008827583028F0AB2FB82F88275850F9CF03
:100EC000552329F08695B795A7955A95D9F7502DB2
:100ED000512572F0CBDF38F46795F795E795739558
:100EE00013F420C0B7DF3EDF5F910895D8F7FBCF42
:100EF000EA1BFB0B680B51F010F40094BBDF662378
:100F000092F3EE0FFF1F661F7A95CBF7EE27FF27B0
:100F1000662777275F910895EFEFFFEF6FE77FEF89
:100F20005F910895EFEFFFEF6FE77FE75F9108951F
:100F30005F932ADF703851F3903841F3012408940D
:100F4000791F23F41CF300203AF3ECCF0F921F9388
:100F50002F933F934F93112722279927689FA00132
:100F60008F9F302D410D591F6B9F300D411D591F13
:100F70008E9F27D0BF9F25D06A9F23D0BE9F1DD0B4
:100F8000AF9F1BD0AE9F110D291F391F491F591F3D
:100F9000E32FF42F652F522F4F913F912F911F91E7
:100FA0000F9066232AF0550FEE1FFF1F661F02C029
:100FB00073954BF2CDDE5F910895100D211D391F01
:100FC00002C0200D311D491F591F08955F93DCDEBB
:100FD000703821F411200AF49FCFA4CF903809F47F
:100FE00095CF01240894970B1BF4D4F30020F3CF82
:100FF000792F1F932F933F934F931124112722276B
:1010000033274427552790E2AE17BF0786074107CD
:1010100030F0AE1BBF0B860B410B089401C08894C7
:10102000551F221F331F111CAA1FBB1F881F441FDF
:101030009A9551F7F901612D4F913F912F911F9191
:10104000662332F0550FEE1FFF1F661F7A9543F29D
:101050007FDE5F91089599239AF0772342F09717E6
:1010600048F029F4AE17BF07860720F031F09894B6
:1010700088940895989408940895189488940895ED
:101080007723C2F7971798F3A9F7EA17FB076807C2
:1010900088F399F3ECCF0024AF0DB01D0895F095BF
:1010A00060957095E195FF4F6F4F7F4F0895FE2F2C
:1010B000FF0FFF0B6F2F7F2F08956F2F660F660BAB
:1010C000762F0895002498E0AA0F001C0E1A10F441
:1010D0000E0E01C0A1609A95B9F7EA2FA02D0895D0
:1010E00039D0F0DF0EF4E19508953F934F935F936D
:1010F000002411244427552730E2AA0FBB1F881F64
:10110000991F001C111C441F551F0E1A1F0A460B65
:10111000570B28F40E0E1F1E461F571F01C0A1605B
:101120003A9559F7FD01BC01D001CA015F914F9179
:101130003F910895E894A7FF02C0A1956894E7FD48
:10114000E195C0DFEA2F0EF4E1950895CEDFFD01B1
:10115000BC010895E894E7FF02C0E1956894A7FFF9
:1011600004C0A19500F8039400FA0895ED91FC9154
:1011700011970895ED91FD916D917C9113970895CC
:10118000E881F9816A817B810895A881B9818A818A
:101190009B810895E883F9836A837B8308957A931A
:1011A0006A93FA93EA9308959A938A93BA93AA93C7
:1011B0000895182E862F612D192E972F712D1B2E15
:1011C000BF2FF12D1A2EAE2FE12D089530976040DC
:1011D000704008955A934A933A932A931A930A9324
:1011E00008955D814C813B812A8119810881089590
:00000001FF
